:10089B00120A91120AC2120B59120BF7120B307576
:1008AB000800750901E4F512F513F514F515F51E9D
:1008BB00F51FE50870FCE50924FE602314604C2449
:1008CB000270EFAF13AE121209C7AF13120B511216
:1008DB000800AD15AC14AF13AE12120AE480D3AD01
:1008EB0015AC14AF13AE12120BED120934AF1FAED1
:1008FB001E120A4FE4F514F515F512F513F51EF556
:10090B001FF5087509017590FF80A7AF13AE121282
:10091B000934E4F514F515F512F513F51EF51FF56D
:09092B00087509017590FF80892F
:0409C7008E208F21CE
:1009CB00E4FEE590540FFFEE7073EF24F9605824AA
:1009DB00FC603F24FE602614600E1470608520209E
:1009EB008521217590FF805574052521F521E4356E
:1009FB0020F5200511E51170410510803D740A2585
:100A0B0021F521E43520F520050BE50B7002050AD5
:100A1B00802874142521F521E43520F520050DE5FA
:100A2B000D7002050C801374322521F521E435205D
:100A3B00F520050FE50F7002050E120B0085201235
:030A4B00852113EF
:010A4E002285
:10080000E59054F0FFE4F51EF51FF514F5156003AF
:1008100002089AEF2490606824C0604B24E0602EA8
:1008200024F0601124F07072E4F51EF51FF514F544
:10083000157590FF22D3E5179400E51694004057F4
:10084000751E00751F017514007515508049D3E59C
:10085000199400E5189400400C751E00751F027570
:1008600014007515648030D3E51B9400E51A9400DC
:10087000400C751E00751F037514007515788017E0
:10088000D3E51D9400E51C9400400C751E00751FF7
:0A08900004751400751596120B0094
:01089A00223B
:100AE400C3EF9DEE9C4014E51F451E600EE50964AE
:0C0AF40003450860067508007509022221
:070B00007590FF7F207E4E7F
:100B0700E4FDFCC3ED9FEC9E50070DBD00010C807A
:010B1700F2EB
:010B180022BA
:090BED00C3EF9DFBEE9CFEAF037B
:010BF60022DC
:100934008E208F21E5214520700122D3E50F9400FC
:10094400E50E94004022E5219432E52094004018FD
:10095400120B03120B6A120B03E50F150F7002152D
:100964000E74CE120B4580D3D3E50B9400E50A94A4
:10097400004022E521940AE52094004018120B035C
:10098400120B7B120B03E50B150B7002150A74F6A0
:10099400120B4580D3D3E5119400E5109400402256
:1009A400E5219405E52094004018120B03120B8CEA
:1009B400120B03E51115117002151074FB120B458F
:0309C40080D322BB
:100A4F00EE703EEF24FE601614601F14602824031E
:100A5F00702F120B9DE51715177026151622120B06
:100A6F00AEE5191519701A151822120BBFE51B15D3
:100A7F001B700E151A22120BD0E51D151D700215D5
:020A8F001C2227
:100A9100751000751196750A00750B96750C007529
:100AA1000D96750E00750F96751600751719751848
:100AB10000751919751A00751B19751C00751D191A
:010AC1002212
:100AC2007590FFD2B2D280D281D282C2A4C2A5C214
:100AD200A6D2A0D2A1D2A2D2A3C2B4C2B5C2B6C279
:020AE200B72239
:100B5900759850758920758DFD758BFDD28ED2994A
:010B69002269
:090BF70075B80175A881D28822AD
:0C0B45002521F52174FF3520F520AF219B
:080B51003099FDC2998F992231
:03000300020B19D4
:100B1900C0E0E509640145087005F5087509037524
:070B290090FFD2B2D0E032D0
:100B6A00308104D2A580F9208104D2A580F9C2A5DA
:010B7A002258
:100B7B00308004D2A480F9208004D2A480F9C2A4CE
:010B8B002247
:100B8C00308204D2A680F9208204D2A680F9C2A6B3
:010B9C002236
:100B9D0030A004D2B480F920A004D2B480F9C2B43C
:010BAD002225
:100BAE0030A104D2B580F920A104D2B580F9C2B526
:010BBE002214
:100BBF0030A204D2B680F920A204D2B680F9C2B610
:010BCF002203
:100BD00030A304D2B780F920A304D2B780F9C2B7FA
:010BE00022F2
:100B3000120B6A120B7B120B8C120B9D120BAE1256
:050B40000BBF020BD009
:03000000020BE10F
:0C0BE100787FE4F6D8FD75812102089BA6
:00000001FF
