:02000000804E30
:0200030041407A
:1000500075810731E331FC511E512F51C27801796E
:10006000007A007B007C00B8010A11A2513811F01F
:10007000314E80F3B80215316D317231BE7C007B98
:10008000007A00790078017590FF80DBB803D8E929
:10009000FC31727C007B007A00790078017590FF5A
:1000A00080C5740F5590FDE9BD0F082400F97590C7
:1000B000FF803CBD0E0C2405F905787590FF315A80
:1000C000802DBD0D0C240AF905797590FF315A80F9
:1000D0001EBD0B0C2414F9057A7590FF315A800F60
:1000E000BD070C2432F9057B7590FF315A80002240
:1000F00074F05590FD7A007B00BDF0097B007A001A
:100100007590FF8048BDE00FE57C60047B017A506C
:100110007590FF315A8036BDD00FE57D60047B02BB
:100120007A647590FF315A8024BDB00FE57E60047B
:100130007B037A787590FF315A8012BD700FE57F8E
:1001400060047B047A967590FF315A800022EB6040
:1001500008E9B5020040027802227E00EE2401FE8A
:100160007F00EF2401FFBFFFF9BEFFF022E9C39A31
:0E017000FC22EC6048E57B6014BC3200400FBE
:10017E00315A514B315AECC39432FC157B80E8E571
:10018E00796014BC0A00400F315A515C315AECC3ED
:10019E00940AFC157980E8E5786014BC0500400FE0
:1001AE00315A516D315AECC39405FC157880E82212
:1001BE00BB0106517E157C801BBB0206518F157D3F
:1001CE008012BB030651A0157E8009BB040651B1F7
:1001DE00157F800022757896757996757A96757B5F
:1001EE0096757C19757D19757E19757F1922759016
:1001FE00FFD2B2D282D280D281C2A6C2A4C2A5D26E
:10020E00A0D2A1D2A2D2A3C2B4C2B5C2B6C2B722E4
:10021E00759850758920758DFD758BFDD28ED2998E
:10022E002275B80175A881D288223099FDC29989AC
:10023E009922B8010278037590FFD2B23230810450
:10024E00D2A580F9208104D2A580F9C2A5223080E2
:10025E0004D2A480F9208004D2A480F9C2A4223052
:10026E008204D2A680F9208204D2A680F9C2A622E8
:10027E0030A004D2B480F920A004D2B480F9C2B464
:10028E002230A104D2B580F920A104D2B580F9C2E2
:10029E00B52230A204D2B680F920A204D2B680F9DB
:0A02AE00C2B62230A304D2B780F9D3
:1002B80020A304D2B780F9C2B722514B515C516DCB
:0902C800517E518F51A051B12269
:00000001FF
